{
  "_format": "hh-sol-artifact-1",
  "contractName": "JobRegistry",
  "sourceName": "contracts/JobRegistry.sol",
  "abi": [
    {
      "inputs": [
        {
          "internalType": "address",
          "name": "_talentLayerIdAddress",
          "type": "address"
        }
      ],
      "stateMutability": "nonpayable",
      "type": "constructor"
    },
    {
      "anonymous": false,
      "inputs": [
        {
          "indexed": false,
          "internalType": "uint256",
          "name": "id",
          "type": "uint256"
        },
        {
          "indexed": false,
          "internalType": "uint256",
          "name": "employerId",
          "type": "uint256"
        },
        {
          "indexed": false,
          "internalType": "uint256",
          "name": "employeeId",
          "type": "uint256"
        },
        {
          "indexed": false,
          "internalType": "string",
          "name": "jobDataUri",
          "type": "string"
        }
      ],
      "name": "JobConfirmed",
      "type": "event"
    },
    {
      "anonymous": false,
      "inputs": [
        {
          "indexed": false,
          "internalType": "uint256",
          "name": "id",
          "type": "uint256"
        },
        {
          "indexed": false,
          "internalType": "uint256",
          "name": "employerId",
          "type": "uint256"
        },
        {
          "indexed": false,
          "internalType": "uint256",
          "name": "employeeId",
          "type": "uint256"
        },
        {
          "indexed": false,
          "internalType": "uint256",
          "name": "initiatorId",
          "type": "uint256"
        },
        {
          "indexed": false,
          "internalType": "string",
          "name": "jobDataUri",
          "type": "string"
        }
      ],
      "name": "JobCreated",
      "type": "event"
    },
    {
      "anonymous": false,
      "inputs": [
        {
          "indexed": false,
          "internalType": "uint256",
          "name": "id",
          "type": "uint256"
        },
        {
          "indexed": false,
          "internalType": "uint256",
          "name": "employerId",
          "type": "uint256"
        },
        {
          "indexed": false,
          "internalType": "uint256",
          "name": "employeeId",
          "type": "uint256"
        },
        {
          "indexed": false,
          "internalType": "string",
          "name": "jobDataUri",
          "type": "string"
        }
      ],
      "name": "JobFinished",
      "type": "event"
    },
    {
      "anonymous": false,
      "inputs": [
        {
          "indexed": false,
          "internalType": "uint256",
          "name": "id",
          "type": "uint256"
        },
        {
          "indexed": false,
          "internalType": "uint256",
          "name": "employerId",
          "type": "uint256"
        },
        {
          "indexed": false,
          "internalType": "uint256",
          "name": "employeeId",
          "type": "uint256"
        },
        {
          "indexed": false,
          "internalType": "string",
          "name": "jobDataUri",
          "type": "string"
        }
      ],
      "name": "JobRejected",
      "type": "event"
    },
    {
      "inputs": [
        {
          "internalType": "uint256",
          "name": "_jobId",
          "type": "uint256"
        }
      ],
      "name": "confirmJob",
      "outputs": [],
      "stateMutability": "nonpayable",
      "type": "function"
    },
    {
      "inputs": [
        {
          "internalType": "uint256",
          "name": "_employerId",
          "type": "uint256"
        },
        {
          "internalType": "string",
          "name": "_jobDataUri",
          "type": "string"
        }
      ],
      "name": "createJobFromEmployee",
      "outputs": [
        {
          "internalType": "uint256",
          "name": "",
          "type": "uint256"
        }
      ],
      "stateMutability": "nonpayable",
      "type": "function"
    },
    {
      "inputs": [
        {
          "internalType": "uint256",
          "name": "_employeeId",
          "type": "uint256"
        },
        {
          "internalType": "string",
          "name": "_jobDataUri",
          "type": "string"
        }
      ],
      "name": "createJobFromEmployer",
      "outputs": [
        {
          "internalType": "uint256",
          "name": "",
          "type": "uint256"
        }
      ],
      "stateMutability": "nonpayable",
      "type": "function"
    },
    {
      "inputs": [
        {
          "internalType": "uint256",
          "name": "_jobId",
          "type": "uint256"
        }
      ],
      "name": "finishJob",
      "outputs": [],
      "stateMutability": "nonpayable",
      "type": "function"
    },
    {
      "inputs": [
        {
          "internalType": "uint256",
          "name": "_jobId",
          "type": "uint256"
        }
      ],
      "name": "getJob",
      "outputs": [
        {
          "components": [
            {
              "internalType": "enum JobRegistry.Status",
              "name": "status",
              "type": "uint8"
            },
            {
              "internalType": "uint256",
              "name": "employerId",
              "type": "uint256"
            },
            {
              "internalType": "uint256",
              "name": "employeeId",
              "type": "uint256"
            },
            {
              "internalType": "uint256",
              "name": "initiatorId",
              "type": "uint256"
            },
            {
              "internalType": "string",
              "name": "jobDataUri",
              "type": "string"
            }
          ],
          "internalType": "struct JobRegistry.Job",
          "name": "",
          "type": "tuple"
        }
      ],
      "stateMutability": "view",
      "type": "function"
    },
    {
      "inputs": [
        {
          "internalType": "uint256",
          "name": "",
          "type": "uint256"
        }
      ],
      "name": "jobs",
      "outputs": [
        {
          "internalType": "enum JobRegistry.Status",
          "name": "status",
          "type": "uint8"
        },
        {
          "internalType": "uint256",
          "name": "employerId",
          "type": "uint256"
        },
        {
          "internalType": "uint256",
          "name": "employeeId",
          "type": "uint256"
        },
        {
          "internalType": "uint256",
          "name": "initiatorId",
          "type": "uint256"
        },
        {
          "internalType": "string",
          "name": "jobDataUri",
          "type": "string"
        }
      ],
      "stateMutability": "view",
      "type": "function"
    },
    {
      "inputs": [
        {
          "internalType": "uint256",
          "name": "_jobId",
          "type": "uint256"
        }
      ],
      "name": "rejectJob",
      "outputs": [],
      "stateMutability": "nonpayable",
      "type": "function"
    }
  ],
  "bytecode": "0x6080604052600160005534801561001557600080fd5b5060405161106638038061106683398101604081905261003491610059565b600180546001600160a01b0319166001600160a01b0392909216919091179055610089565b60006020828403121561006b57600080fd5b81516001600160a01b038116811461008257600080fd5b9392505050565b610fce806100986000396000f3fe608060405234801561001057600080fd5b506004361061007d5760003560e01c8063ce0728d51161005b578063ce0728d5146100e4578063d548008114610105578063e91a09ce14610118578063fb3680601461012b57600080fd5b8063180aedf3146100825780636e3589a2146100af578063bf22c457146100c4575b600080fd5b610095610090366004610c31565b61013e565b6040516100a6959493929190610ccf565b60405180910390f35b6100c26100bd366004610c31565b6101fd565b005b6100d76100d2366004610c31565b61037f565b6040516100a69190610d0c565b6100f76100f2366004610d5e565b6104f9565b6040519081526020016100a6565b6100c2610113366004610c31565b610590565b6100f7610126366004610d5e565b610775565b6100c2610139366004610c31565b610803565b60026020819052600091825260409091208054600182015492820154600383015460048401805460ff9094169594929391929161017a90610dda565b80601f01602080910402602001604051908101604052809291908181526020018280546101a690610dda565b80156101f35780601f106101c8576101008083540402835291602001916101f3565b820191906000526020600020905b8154815290600101906020018083116101d657829003601f168201915b5050505050905085565b600081815260026020526040808220600154915162438b6360e81b81523360048201529092916001600160a01b03169063438b63009060240160206040518083038186803b15801561024e57600080fd5b505afa158015610262573d6000803e3d6000fd5b505050506040513d601f19601f820116820180604052508101906102869190610e15565b9050816001015481148061029d5750816002015481145b6102c25760405162461bcd60e51b81526004016102b990610e2e565b60405180910390fd5b6001825460ff1660038111156102da576102da610c4a565b146103275760405162461bcd60e51b815260206004820152601960248201527f596f752063616e27742066696e6973682074686973206a6f620000000000000060448201526064016102b9565b815460ff1916600290811783556001830154908301546040517fe009ce575781eace93e19229c24df29249a154b9378e9634dc33bc0705bbf1aa926103729287926004880190610e65565b60405180910390a1505050565b6103b26040805160a081019091528060008152602001600081526020016000815260200160008152602001606081525090565b60005482106103fc5760405162461bcd60e51b8152602060048201526016602482015275151a1a5cc81a9bd888191bd95cc9db9d08195e1a5cdd60521b60448201526064016102b9565b60008281526002602052604090819020815160a081019092528054829060ff16600381111561042d5761042d610c4a565b600381111561043e5761043e610c4a565b815260200160018201548152602001600282015481526020016003820154815260200160048201805461047090610dda565b80601f016020809104026020016040519081016040528092919081815260200182805461049c90610dda565b80156104e95780601f106104be576101008083540402835291602001916104e9565b820191906000526020600020905b8154815290600101906020018083116104cc57829003601f168201915b5050505050815250509050919050565b60015460405162438b6360e81b815233600482015260009182916001600160a01b039091169063438b63009060240160206040518083038186803b15801561054057600080fd5b505afa158015610554573d6000803e3d6000fd5b505050506040513d601f19601f820116820180604052508101906105789190610e15565b9050610587818683878761096e565b95945050505050565b600081815260026020526040808220600154915162438b6360e81b81523360048201529092916001600160a01b03169063438b63009060240160206040518083038186803b1580156105e157600080fd5b505afa1580156105f5573d6000803e3d6000fd5b505050506040513d601f19601f820116820180604052508101906106199190610e15565b90506000825460ff16600381111561063357610633610c4a565b146106805760405162461bcd60e51b815260206004820152601e60248201527f4a6f622068617320616c7265616479206265656e20636f6e6669726d6564000060448201526064016102b9565b81600101548114806106955750816002015481145b6106b15760405162461bcd60e51b81526004016102b990610e2e565b816003015481141561072b5760405162461bcd60e51b815260206004820152603760248201527f4f6e6c792074686520757365722077686f206469646e277420696e697461746560448201527f20746865206a6f622063616e20636f6e6669726d20697400000000000000000060648201526084016102b9565b815460ff19166001908117835582015460028301546040517f826ead164514680a543cb4b14668631815ccc71fdfe100b7654738046bd4ed42926103729287926004880190610e65565b60015460405162438b6360e81b815233600482015260009182916001600160a01b039091169063438b63009060240160206040518083038186803b1580156107bc57600080fd5b505afa1580156107d0573d6000803e3d6000fd5b505050506040513d601f19601f820116820180604052508101906107f49190610e15565b9050610587818287878761096e565b600081815260026020526040808220600154915162438b6360e81b81523360048201529092916001600160a01b03169063438b63009060240160206040518083038186803b15801561085457600080fd5b505afa158015610868573d6000803e3d6000fd5b505050506040513d601f19601f8201168201806040525081019061088c9190610e15565b905081600101548114806108a35750816002015481145b6108bf5760405162461bcd60e51b81526004016102b990610e2e565b6000825460ff1660038111156108d7576108d7610c4a565b146109245760405162461bcd60e51b815260206004820152601960248201527f596f752063616e27742072656a6563742074686973206a6f620000000000000060448201526064016102b9565b815460ff19166003178255600182015460028301546040517fa3fbf1a3adaa9390e668c5eed55b7dca25952ec70b00d58f1d87ee8f3a569f66926103729287926004880190610e65565b6000848414156109d05760405162461bcd60e51b815260206004820152602760248201527f456d706c6f79656520616e6420656d706c6f7965722063616e2774206265207460448201526668652073616d6560c81b60648201526084016102b9565b60008611610a205760405162461bcd60e51b815260206004820152601e60248201527f596f7520736f756c64206861766520612054616c656e744c617965724964000060448201526064016102b9565b81610a6d5760405162461bcd60e51b815260206004820152601f60248201527f53686f756c642070726f7669646520612076616c69642049504653205552490060448201526064016102b9565b6000805490819080610a7e83610f24565b90915550506040805160a08101909152806000815260200187815260200186815260200188815260200185858080601f01602080910402602001604051908101604052809392919081815260200183838082843760009201829052509390945250508381526002602052604090208251815491925090829060ff19166001836003811115610b0e57610b0e610c4a565b02179055506020828101516001830155604083015160028301556060830151600383015560808301518051610b499260048501920190610b98565b509050507fa70e6a668c743d5156892dc8f2b82ff3094b6979791e529b83cc59f35b80fa168187878a8888604051610b8696959493929190610f4d565b60405180910390a19695505050505050565b828054610ba490610dda565b90600052602060002090601f016020900481019282610bc65760008555610c0c565b82601f10610bdf57805160ff1916838001178555610c0c565b82800160010185558215610c0c579182015b82811115610c0c578251825591602001919060010190610bf1565b50610c18929150610c1c565b5090565b5b80821115610c185760008155600101610c1d565b600060208284031215610c4357600080fd5b5035919050565b634e487b7160e01b600052602160045260246000fd5b60048110610c7e57634e487b7160e01b600052602160045260246000fd5b9052565b6000815180845260005b81811015610ca857602081850181015186830182015201610c8c565b81811115610cba576000602083870101525b50601f01601f19169290920160200192915050565b610cd98187610c60565b84602082015283604082015282606082015260a060808201526000610d0160a0830184610c82565b979650505050505050565b60208152610d1e602082018351610c60565b6020820151604082015260408201516060820152606082015160808201526000608083015160a080840152610d5660c0840182610c82565b949350505050565b600080600060408486031215610d7357600080fd5b83359250602084013567ffffffffffffffff80821115610d9257600080fd5b818601915086601f830112610da657600080fd5b813581811115610db557600080fd5b876020828501011115610dc757600080fd5b6020830194508093505050509250925092565b600181811c90821680610dee57607f821691505b60208210811415610e0f57634e487b7160e01b600052602260045260246000fd5b50919050565b600060208284031215610e2757600080fd5b5051919050565b6020808252601f908201527f596f75277265206e6f7420616e206163746f72206f662074686973206a6f6200604082015260600190565b848152600060208581840152846040840152608060608401526000845481600182811c915080831680610e9957607f831692505b858310811415610eb757634e487b7160e01b85526022600452602485fd5b6080880183905260a08801818015610ed65760018114610ee757610f12565b60ff19861682528782019650610f12565b60008b81526020902060005b86811015610f0c57815484820152908501908901610ef3565b83019750505b50949c9b505050505050505050505050565b6000600019821415610f4657634e487b7160e01b600052601160045260246000fd5b5060010190565b86815285602082015284604082015283606082015260a060808201528160a0820152818360c0830137600081830160c090810191909152601f909201601f191601019594505050505056fea264697066735822122033c5505f25a34d15924390f760cc77a95e9604df816f5708791d6cf1b4003e1664736f6c63430008090033",
  "linkReferences": {},
  "deployedLinkReferences": {}
}