{
  "_format": "hh-sol-artifact-1",
  "contractName": "TalentLayerID",
  "sourceName": "contracts/TalentLayerID.sol",
  "abi": [
    {
      "inputs": [
        {
          "internalType": "string",
          "name": "_baseURI",
          "type": "string"
        },
        {
          "internalType": "address",
          "name": "_pohAddress",
          "type": "address"
        }
      ],
      "stateMutability": "nonpayable",
      "type": "constructor"
    },
    {
      "inputs": [],
      "name": "ApprovalCallerNotOwnerNorApproved",
      "type": "error"
    },
    {
      "inputs": [],
      "name": "ApprovalQueryForNonexistentToken",
      "type": "error"
    },
    {
      "inputs": [],
      "name": "ApproveToCaller",
      "type": "error"
    },
    {
      "inputs": [],
      "name": "BalanceQueryForZeroAddress",
      "type": "error"
    },
    {
      "inputs": [],
      "name": "MintERC2309QuantityExceedsLimit",
      "type": "error"
    },
    {
      "inputs": [],
      "name": "MintToZeroAddress",
      "type": "error"
    },
    {
      "inputs": [],
      "name": "MintZeroQuantity",
      "type": "error"
    },
    {
      "inputs": [],
      "name": "OwnerQueryForNonexistentToken",
      "type": "error"
    },
    {
      "inputs": [],
      "name": "OwnershipNotInitializedForExtraData",
      "type": "error"
    },
    {
      "inputs": [],
      "name": "TransferCallerNotOwnerNorApproved",
      "type": "error"
    },
    {
      "inputs": [],
      "name": "TransferFromIncorrectOwner",
      "type": "error"
    },
    {
      "inputs": [],
      "name": "TransferToNonERC721ReceiverImplementer",
      "type": "error"
    },
    {
      "inputs": [],
      "name": "TransferToZeroAddress",
      "type": "error"
    },
    {
      "inputs": [],
      "name": "URIQueryForNonexistentToken",
      "type": "error"
    },
    {
      "anonymous": false,
      "inputs": [
        {
          "indexed": true,
          "internalType": "address",
          "name": "owner",
          "type": "address"
        },
        {
          "indexed": true,
          "internalType": "address",
          "name": "approved",
          "type": "address"
        },
        {
          "indexed": true,
          "internalType": "uint256",
          "name": "tokenId",
          "type": "uint256"
        }
      ],
      "name": "Approval",
      "type": "event"
    },
    {
      "anonymous": false,
      "inputs": [
        {
          "indexed": true,
          "internalType": "address",
          "name": "owner",
          "type": "address"
        },
        {
          "indexed": true,
          "internalType": "address",
          "name": "operator",
          "type": "address"
        },
        {
          "indexed": false,
          "internalType": "bool",
          "name": "approved",
          "type": "bool"
        }
      ],
      "name": "ApprovalForAll",
      "type": "event"
    },
    {
      "anonymous": false,
      "inputs": [
        {
          "indexed": true,
          "internalType": "uint256",
          "name": "fromTokenId",
          "type": "uint256"
        },
        {
          "indexed": false,
          "internalType": "uint256",
          "name": "toTokenId",
          "type": "uint256"
        },
        {
          "indexed": true,
          "internalType": "address",
          "name": "from",
          "type": "address"
        },
        {
          "indexed": true,
          "internalType": "address",
          "name": "to",
          "type": "address"
        }
      ],
      "name": "ConsecutiveTransfer",
      "type": "event"
    },
    {
      "anonymous": false,
      "inputs": [
        {
          "indexed": true,
          "internalType": "address",
          "name": "_user",
          "type": "address"
        },
        {
          "indexed": false,
          "internalType": "uint256",
          "name": "_tokenId",
          "type": "uint256"
        },
        {
          "indexed": false,
          "internalType": "string",
          "name": "_handle",
          "type": "string"
        }
      ],
      "name": "Mint",
      "type": "event"
    },
    {
      "anonymous": false,
      "inputs": [
        {
          "indexed": true,
          "internalType": "address",
          "name": "previousOwner",
          "type": "address"
        },
        {
          "indexed": true,
          "internalType": "address",
          "name": "newOwner",
          "type": "address"
        }
      ],
      "name": "OwnershipTransferred",
      "type": "event"
    },
    {
      "anonymous": false,
      "inputs": [
        {
          "indexed": true,
          "internalType": "address",
          "name": "from",
          "type": "address"
        },
        {
          "indexed": true,
          "internalType": "address",
          "name": "to",
          "type": "address"
        },
        {
          "indexed": true,
          "internalType": "uint256",
          "name": "tokenId",
          "type": "uint256"
        }
      ],
      "name": "Transfer",
      "type": "event"
    },
    {
      "inputs": [
        {
          "internalType": "uint256",
          "name": "_tokenId",
          "type": "uint256"
        }
      ],
      "name": "activatePoh",
      "outputs": [],
      "stateMutability": "nonpayable",
      "type": "function"
    },
    {
      "inputs": [
        {
          "internalType": "address",
          "name": "to",
          "type": "address"
        },
        {
          "internalType": "uint256",
          "name": "tokenId",
          "type": "uint256"
        }
      ],
      "name": "approve",
      "outputs": [],
      "stateMutability": "nonpayable",
      "type": "function"
    },
    {
      "inputs": [
        {
          "internalType": "address",
          "name": "owner",
          "type": "address"
        }
      ],
      "name": "balanceOf",
      "outputs": [
        {
          "internalType": "uint256",
          "name": "",
          "type": "uint256"
        }
      ],
      "stateMutability": "view",
      "type": "function"
    },
    {
      "inputs": [
        {
          "internalType": "uint256",
          "name": "tokenId",
          "type": "uint256"
        }
      ],
      "name": "getApproved",
      "outputs": [
        {
          "internalType": "address",
          "name": "",
          "type": "address"
        }
      ],
      "stateMutability": "view",
      "type": "function"
    },
    {
      "inputs": [
        {
          "internalType": "string",
          "name": "",
          "type": "string"
        }
      ],
      "name": "handles",
      "outputs": [
        {
          "internalType": "address",
          "name": "",
          "type": "address"
        }
      ],
      "stateMutability": "view",
      "type": "function"
    },
    {
      "inputs": [
        {
          "internalType": "address",
          "name": "",
          "type": "address"
        }
      ],
      "name": "hasBeenRecovered",
      "outputs": [
        {
          "internalType": "bool",
          "name": "",
          "type": "bool"
        }
      ],
      "stateMutability": "view",
      "type": "function"
    },
    {
      "inputs": [
        {
          "internalType": "address",
          "name": "owner",
          "type": "address"
        },
        {
          "internalType": "address",
          "name": "operator",
          "type": "address"
        }
      ],
      "name": "isApprovedForAll",
      "outputs": [
        {
          "internalType": "bool",
          "name": "",
          "type": "bool"
        }
      ],
      "stateMutability": "view",
      "type": "function"
    },
    {
      "inputs": [
        {
          "internalType": "uint256",
          "name": "_tokenId",
          "type": "uint256"
        }
      ],
      "name": "isTokenPohRegistered",
      "outputs": [
        {
          "internalType": "bool",
          "name": "",
          "type": "bool"
        }
      ],
      "stateMutability": "view",
      "type": "function"
    },
    {
      "inputs": [
        {
          "internalType": "string",
          "name": "_handle",
          "type": "string"
        }
      ],
      "name": "mint",
      "outputs": [],
      "stateMutability": "nonpayable",
      "type": "function"
    },
    {
      "inputs": [
        {
          "internalType": "string",
          "name": "_handle",
          "type": "string"
        }
      ],
      "name": "mintWithPoh",
      "outputs": [],
      "stateMutability": "nonpayable",
      "type": "function"
    },
    {
      "inputs": [],
      "name": "name",
      "outputs": [
        {
          "internalType": "string",
          "name": "",
          "type": "string"
        }
      ],
      "stateMutability": "view",
      "type": "function"
    },
    {
      "inputs": [
        {
          "internalType": "address",
          "name": "_user",
          "type": "address"
        }
      ],
      "name": "numberMinted",
      "outputs": [
        {
          "internalType": "uint256",
          "name": "",
          "type": "uint256"
        }
      ],
      "stateMutability": "view",
      "type": "function"
    },
    {
      "inputs": [],
      "name": "owner",
      "outputs": [
        {
          "internalType": "address",
          "name": "",
          "type": "address"
        }
      ],
      "stateMutability": "view",
      "type": "function"
    },
    {
      "inputs": [
        {
          "internalType": "uint256",
          "name": "tokenId",
          "type": "uint256"
        }
      ],
      "name": "ownerOf",
      "outputs": [
        {
          "internalType": "address",
          "name": "",
          "type": "address"
        }
      ],
      "stateMutability": "view",
      "type": "function"
    },
    {
      "inputs": [],
      "name": "pohRegistry",
      "outputs": [
        {
          "internalType": "contract IProofOfHumanity",
          "name": "",
          "type": "address"
        }
      ],
      "stateMutability": "view",
      "type": "function"
    },
    {
      "inputs": [
        {
          "internalType": "uint256",
          "name": "",
          "type": "uint256"
        }
      ],
      "name": "profilesDataUri",
      "outputs": [
        {
          "internalType": "string",
          "name": "",
          "type": "string"
        }
      ],
      "stateMutability": "view",
      "type": "function"
    },
    {
      "inputs": [
        {
          "internalType": "address",
          "name": "_oldAddress",
          "type": "address"
        },
        {
          "internalType": "uint256",
          "name": "_tokenId",
          "type": "uint256"
        },
        {
          "internalType": "uint256",
          "name": "_index",
          "type": "uint256"
        },
        {
          "internalType": "uint256",
          "name": "_recoveryKey",
          "type": "uint256"
        },
        {
          "internalType": "string",
          "name": "_handle",
          "type": "string"
        },
        {
          "internalType": "bytes32[]",
          "name": "_merkleProof",
          "type": "bytes32[]"
        }
      ],
      "name": "recoverAccount",
      "outputs": [],
      "stateMutability": "nonpayable",
      "type": "function"
    },
    {
      "inputs": [],
      "name": "recoveryRoot",
      "outputs": [
        {
          "internalType": "bytes32",
          "name": "",
          "type": "bytes32"
        }
      ],
      "stateMutability": "view",
      "type": "function"
    },
    {
      "inputs": [],
      "name": "renounceOwnership",
      "outputs": [],
      "stateMutability": "nonpayable",
      "type": "function"
    },
    {
      "inputs": [
        {
          "internalType": "address",
          "name": "from",
          "type": "address"
        },
        {
          "internalType": "address",
          "name": "to",
          "type": "address"
        },
        {
          "internalType": "uint256",
          "name": "tokenId",
          "type": "uint256"
        }
      ],
      "name": "safeTransferFrom",
      "outputs": [],
      "stateMutability": "nonpayable",
      "type": "function"
    },
    {
      "inputs": [
        {
          "internalType": "address",
          "name": "from",
          "type": "address"
        },
        {
          "internalType": "address",
          "name": "to",
          "type": "address"
        },
        {
          "internalType": "uint256",
          "name": "tokenId",
          "type": "uint256"
        },
        {
          "internalType": "bytes",
          "name": "_data",
          "type": "bytes"
        }
      ],
      "name": "safeTransferFrom",
      "outputs": [],
      "stateMutability": "nonpayable",
      "type": "function"
    },
    {
      "inputs": [
        {
          "internalType": "address",
          "name": "operator",
          "type": "address"
        },
        {
          "internalType": "bool",
          "name": "approved",
          "type": "bool"
        }
      ],
      "name": "setApprovalForAll",
      "outputs": [],
      "stateMutability": "nonpayable",
      "type": "function"
    },
    {
      "inputs": [
        {
          "internalType": "string",
          "name": "_newBaseURI",
          "type": "string"
        }
      ],
      "name": "setBaseURI",
      "outputs": [],
      "stateMutability": "nonpayable",
      "type": "function"
    },
    {
      "inputs": [
        {
          "internalType": "bytes4",
          "name": "interfaceId",
          "type": "bytes4"
        }
      ],
      "name": "supportsInterface",
      "outputs": [
        {
          "internalType": "bool",
          "name": "",
          "type": "bool"
        }
      ],
      "stateMutability": "view",
      "type": "function"
    },
    {
      "inputs": [],
      "name": "symbol",
      "outputs": [
        {
          "internalType": "string",
          "name": "",
          "type": "string"
        }
      ],
      "stateMutability": "view",
      "type": "function"
    },
    {
      "inputs": [
        {
          "internalType": "uint256",
          "name": "",
          "type": "uint256"
        }
      ],
      "name": "talentIdPohAddresses",
      "outputs": [
        {
          "internalType": "address",
          "name": "",
          "type": "address"
        }
      ],
      "stateMutability": "view",
      "type": "function"
    },
    {
      "inputs": [
        {
          "internalType": "uint256",
          "name": "tokenId",
          "type": "uint256"
        }
      ],
      "name": "tokenURI",
      "outputs": [
        {
          "internalType": "string",
          "name": "",
          "type": "string"
        }
      ],
      "stateMutability": "view",
      "type": "function"
    },
    {
      "inputs": [],
      "name": "totalSupply",
      "outputs": [
        {
          "internalType": "uint256",
          "name": "",
          "type": "uint256"
        }
      ],
      "stateMutability": "view",
      "type": "function"
    },
    {
      "inputs": [
        {
          "internalType": "address",
          "name": "from",
          "type": "address"
        },
        {
          "internalType": "address",
          "name": "to",
          "type": "address"
        },
        {
          "internalType": "uint256",
          "name": "tokenId",
          "type": "uint256"
        }
      ],
      "name": "transferFrom",
      "outputs": [],
      "stateMutability": "nonpayable",
      "type": "function"
    },
    {
      "inputs": [
        {
          "internalType": "address",
          "name": "newOwner",
          "type": "address"
        }
      ],
      "name": "transferOwnership",
      "outputs": [],
      "stateMutability": "nonpayable",
      "type": "function"
    },
    {
      "inputs": [
        {
          "internalType": "uint256",
          "name": "_tokenId",
          "type": "uint256"
        },
        {
          "internalType": "string",
          "name": "_newCid",
          "type": "string"
        }
      ],
      "name": "updateProfileData",
      "outputs": [],
      "stateMutability": "nonpayable",
      "type": "function"
    },
    {
      "inputs": [
        {
          "internalType": "bytes32",
          "name": "_newRoot",
          "type": "bytes32"
        }
      ],
      "name": "updateRecoveryRoot",
      "outputs": [],
      "stateMutability": "nonpayable",
      "type": "function"
    },
    {
      "inputs": [
        {
          "internalType": "address",
          "name": "_owner",
          "type": "address"
        }
      ],
      "name": "walletOfOwner",
      "outputs": [
        {
          "internalType": "uint256",
          "name": "",
          "type": "uint256"
        }
      ],
      "stateMutability": "view",
      "type": "function"
    }
  ],
  "bytecode": "0x60806040523480156200001157600080fd5b50604051620025693803806200256983398101604081905262000034916200028e565b604080518082018252600d81526c15185b195b9d13185e595c9251609a1b60208083019182528351808501909452600384526215125160ea1b9084015281519192916200008491600291620001b5565b5080516200009a906003906020840190620001b5565b5050600160005550620000ad33620000df565b620000b88262000131565b600980546001600160a01b0319166001600160a01b039290921691909117905550620003bc565b600880546001600160a01b038381166001600160a01b0319831681179093556040519116919082907f8be0079c531659141344cd1fd0a4f28419497f9722a3daafe3b4186f6b6457e090600090a35050565b6200013b62000154565b80516200015090600d906020840190620001b5565b5050565b6008546001600160a01b03163314620001b35760405162461bcd60e51b815260206004820181905260248201527f4f776e61626c653a2063616c6c6572206973206e6f7420746865206f776e6572604482015260640160405180910390fd5b565b828054620001c3906200037f565b90600052602060002090601f016020900481019282620001e7576000855562000232565b82601f106200020257805160ff191683800117855562000232565b8280016001018555821562000232579182015b828111156200023257825182559160200191906001019062000215565b506200024092915062000244565b5090565b5b8082111562000240576000815560010162000245565b634e487b7160e01b600052604160045260246000fd5b80516001600160a01b03811681146200028957600080fd5b919050565b60008060408385031215620002a257600080fd5b82516001600160401b0380821115620002ba57600080fd5b818501915085601f830112620002cf57600080fd5b815181811115620002e457620002e46200025b565b604051601f8201601f19908116603f011681019083821181831017156200030f576200030f6200025b565b816040528281526020935088848487010111156200032c57600080fd5b600091505b8282101562000350578482018401518183018501529083019062000331565b82821115620003625760008484830101525b95506200037491505085820162000271565b925050509250929050565b600181811c908216806200039457607f821691505b60208210811415620003b657634e487b7160e01b600052602260045260246000fd5b50919050565b61219d80620003cc6000396000f3fe608060405234801561001057600080fd5b50600436106101fb5760003560e01c80636352211e1161011a578063b88d4fde116100ad578063de8295921161007c578063de8295921461042d578063e985e9c514610450578063f160068f1461048c578063f2fde38b1461049f578063f4347dd9146104b257600080fd5b8063b88d4fde146103e1578063c87b56dd146103f4578063d85d3d2714610407578063dc33e6811461041a57600080fd5b80638da5cb5b116100e95780638da5cb5b146103a25780639098f5bd146103b357806395d89b41146103c6578063a22cb465146103ce57600080fd5b80636352211e1461036157806370a0823114610374578063715018a61461038757806384c639371461038f57600080fd5b806323b872dd11610192578063438b630011610161578063438b6300146102ff57806346be141c1461031257806350ba49751461032557806355f804b31461034e57600080fd5b806323b872dd146102c65780632567c4c6146102d95780633ce12f6d146102ec57806342842e0e146102c657600080fd5b80630fb72ff6116101ce5780630fb72ff61461027d57806318160ddd1461029057806319aeca93146102aa5780632249b157146102b357600080fd5b806301ffc9a71461020057806306fdde0314610228578063081812fc1461023d578063095ea7b314610268575b600080fd5b61021361020e366004611ad9565b6104e6565b60405190151581526020015b60405180910390f35b610230610538565b60405161021f9190611b4e565b61025061024b366004611b61565b6105ca565b6040516001600160a01b03909116815260200161021f565b61027b610276366004611b96565b61060e565b005b61027b61028b366004611b61565b6106ae565b60015460005403600019015b60405190815260200161021f565b61029c600e5481565b61027b6102c1366004611c6c565b6107c7565b61027b6102d4366004611ca1565b505050565b61027b6102e7366004611d29565b610982565b61027b6102fa366004611b61565b610db1565b61029c61030d366004611df4565b610dbe565b610213610320366004611b61565b610e47565b610250610333366004611b61565b600b602052600090815260409020546001600160a01b031681565b61027b61035c366004611c6c565b610ed3565b61025061036f366004611b61565b610ef2565b61029c610382366004611df4565b610efd565b61027b610f4c565b600954610250906001600160a01b031681565b6008546001600160a01b0316610250565b6102306103c1366004611b61565b610f60565b610230610ffa565b61027b6103dc366004611e1d565b611009565b61027b6103ef366004611e54565b61109f565b610230610402366004611b61565b6110de565b61027b610415366004611c6c565b611170565b61029c610428366004611df4565b61125d565b61021361043b366004611df4565b600f6020526000908152604090205460ff1681565b61021361045e366004611ed0565b6001600160a01b03918216600090815260076020908152604080832093909416825291909152205460ff1690565b61027b61049a366004611f03565b611268565b61027b6104ad366004611df4565b6112f5565b6102506104c0366004611c6c565b8051602081830181018051600a825292820191909301209152546001600160a01b031681565b60006301ffc9a760e01b6001600160e01b03198316148061051757506380ac58cd60e01b6001600160e01b03198316145b806105325750635b5e139f60e01b6001600160e01b03198316145b92915050565b60606002805461054790611f4a565b80601f016020809104026020016040519081016040528092919081815260200182805461057390611f4a565b80156105c05780601f10610595576101008083540402835291602001916105c0565b820191906000526020600020905b8154815290600101906020018083116105a357829003601f168201915b5050505050905090565b60006105d58261136e565b6105f2576040516333d1c03960e21b815260040160405180910390fd5b506000908152600660205260409020546001600160a01b031690565b600061061982610ef2565b9050336001600160a01b0382161461065257610635813361045e565b610652576040516367d9dca160e11b815260040160405180910390fd5b60008281526006602052604080822080546001600160a01b0319166001600160a01b0387811691821790925591518593918516917f8c5be1e5ebec7d5bd14f71427d1e84f3dd0314c0f7b2291e5b200ac8c7c3b92591a4505050565b336106b882610ef2565b6001600160a01b0316146106cb57600080fd5b60095460405163c3c5a54760e01b81523360048201526001600160a01b039091169063c3c5a5479060240160206040518083038186803b15801561070e57600080fd5b505afa158015610722573d6000803e3d6000fd5b505050506040513d601f19601f820116820180604052508101906107469190611f85565b6107a75760405162461bcd60e51b815260206004820152602760248201527f596f752772652061646472657373206973206e6f7420726567697374657264206044820152660ccdee440e0ded60cb1b60648201526084015b60405180910390fd5b6000908152600b6020526040902080546001600160a01b03191633179055565b806107d13361125d565b1561081e5760405162461bcd60e51b815260206004820181905260248201527f596f7520616c7265616479206861766520612054616c656e744c617965724944604482015260640161079e565b600a815111156108625760405162461bcd60e51b815260206004820152600f60248201526e48616e646c6520746f6f206c6f6e6760881b604482015260640161079e565b60006001600160a01b0316600a8260405161087d9190611fa2565b908152604051908190036020019020546001600160a01b0316146108a057600080fd5b60095460405163c3c5a54760e01b81523360048201526001600160a01b039091169063c3c5a5479060240160206040518083038186803b1580156108e357600080fd5b505afa1580156108f7573d6000803e3d6000fd5b505050506040513d601f19601f8201168201806040525081019061091b9190611f85565b6109375760405162461bcd60e51b815260040161079e90611fbe565b6109423360016113a3565b6000600161094f60005490565b6109599190612031565b6000818152600b6020526040902080546001600160a01b0319163317905590506102d4836113bd565b6001600160a01b0388166000908152600f602052604090205460ff16156109fb5760405162461bcd60e51b815260206004820152602760248201527f5468697320616464726573732068617320616c7265616479206265656e20726560448201526618dbdd995c995960ca1b606482015260840161079e565b876001600160a01b0316610a0e88610ef2565b6001600160a01b031614610a705760405162461bcd60e51b815260206004820152602360248201527f596f7520617265206e6f7420746865206f776e6572206f66207468697320746f60448201526235b2b760e91b606482015260840161079e565b610a793361125d565b15610ac65760405162461bcd60e51b815260206004820152601860248201527f596f7520616c72656164792068617665206120746f6b656e0000000000000000604482015260640161079e565b6000878152600b60205260409020546001600160a01b031615610b485760405162461bcd60e51b815260206004820152603460248201527f596f7572206f6c64206164647265737320776173206e6f74206c696e6b656420604482015273746f2050726f6f66206f662048756d616e69747960601b606482015260840161079e565b876001600160a01b0316600a8585604051610b64929190612048565b908152604051908190036020019020546001600160a01b031614610bbb5760405162461bcd60e51b815260206004820152600e60248201526d496e76616c69642068616e646c6560901b604482015260640161079e565b60095460405163c3c5a54760e01b81523360048201526001600160a01b039091169063c3c5a5479060240160206040518083038186803b158015610bfe57600080fd5b505afa158015610c12573d6000803e3d6000fd5b505050506040513d601f19601f82011682018060405250810190610c369190611f85565b610c525760405162461bcd60e51b815260040161079e90611fbe565b6000868686868c604051602001610c6d959493929190612058565b604051602081830303815290604052805190602001209050610cc683838080602002602001604051908101604052809392919081815260200183836020028082843760009201919091525050600e54915084905061145d565b610d1c5760405162461bcd60e51b815260206004820152602160248201527f4d65726b6c654469737472696275746f723a20496e76616c69642070726f6f666044820152601760f91b606482015260840161079e565b6001600160a01b0389166000908152600f602052604090819020805460ff19166001179055513390600a90610d549088908890612048565b908152604080516020928190038301902080546001600160a01b03199081166001600160a01b039590951694909417905560008b8152600b9092529020805433921682179055610da6908a908a611473565b505050505050505050565b610db9611579565b600e55565b6000806001815b60015460005403600019018211610e3e576000610de1836115d3565b90508060400151158015610dfe575080516001600160a01b031615155b15610e0857805191505b856001600160a01b0316826001600160a01b03161415610e2b5782935050610e3e565b82610e3581612094565b93505050610dc5565b50909392505050565b6009546000828152600b602052604080822054905163c3c5a54760e01b81526001600160a01b0391821660048201529192169063c3c5a5479060240160206040518083038186803b158015610e9b57600080fd5b505afa158015610eaf573d6000803e3d6000fd5b505050506040513d601f19601f820116820180604052508101906105329190611f85565b610edb611579565b8051610eee90600d906020840190611a2a565b5050565b60006105328261164b565b60006001600160a01b038216610f26576040516323d3ad8160e21b815260040160405180910390fd5b506001600160a01b031660009081526005602052604090205467ffffffffffffffff1690565b610f54611579565b610f5e60006116b4565b565b600c6020526000908152604090208054610f7990611f4a565b80601f0160208091040260200160405190810160405280929190818152602001828054610fa590611f4a565b8015610ff25780601f10610fc757610100808354040283529160200191610ff2565b820191906000526020600020905b815481529060010190602001808311610fd557829003601f168201915b505050505081565b60606003805461054790611f4a565b6001600160a01b0382163314156110335760405163b06307db60e01b815260040160405180910390fd5b3360008181526007602090815260408083206001600160a01b03871680855290835292819020805460ff191686151590811790915590519081529192917f17307eab39ab6107e8899845ad3d59bd9653f200f220920489ca2b5937696c31910160405180910390a35050565b6001600160a01b0383163b156110d8576110bb84848484611706565b6110d8576040516368d2bf6b60e11b815260040160405180910390fd5b50505050565b60606110e98261136e565b61110657604051630a14c4b560e41b815260040160405180910390fd5b600061111d60408051602081019091526000815290565b905080516000141561113e5760405180602001604052806000815250611169565b80611148846117fe565b6040516020016111599291906120af565b6040516020818303038152906040525b9392505050565b8061117a3361125d565b156111c75760405162461bcd60e51b815260206004820181905260248201527f596f7520616c7265616479206861766520612054616c656e744c617965724944604482015260640161079e565b600a8151111561120b5760405162461bcd60e51b815260206004820152600f60248201526e48616e646c6520746f6f206c6f6e6760881b604482015260640161079e565b60006001600160a01b0316600a826040516112269190611fa2565b908152604051908190036020019020546001600160a01b03161461124957600080fd5b6112543360016113a3565b610eee826113bd565b600061053282610efd565b3361127283610ef2565b6001600160a01b03161461128557600080fd5b60008151116112d65760405162461bcd60e51b815260206004820152601f60248201527f53686f756c642070726f7669646520612076616c696420495046532055524900604482015260640161079e565b6000828152600c6020908152604090912082516102d492840190611a2a565b6112fd611579565b6001600160a01b0381166113625760405162461bcd60e51b815260206004820152602660248201527f4f776e61626c653a206e6577206f776e657220697320746865207a65726f206160448201526564647265737360d01b606482015260840161079e565b61136b816116b4565b50565b600081600111158015611382575060005482105b8015610532575050600090815260046020526040902054600160e01b161590565b610eee82826040518060200160405280600081525061184d565b33600a826040516113ce9190611fa2565b90815260405190819003602001902080546001600160a01b03929092166001600160a01b03199092169190911790556000600161140a60005490565b6114149190612031565b9050336001600160a01b03167f85a66b9141978db9980f7e0ce3b468cebf4f7999f32b23091c5c03e798b1ba7a82846040516114519291906120de565b60405180910390a25050565b60008261146a85846118ba565b14949350505050565b600061147e8261164b565b90506001600160a01b0383166114a757604051633a954ecd60e21b815260040160405180910390fd5b6001600160a01b038481166000908152600560205260408082208054600019019055918516808252919020805460010190554260a01b17600160e11b17600083815260046020526040902055600160e11b811661153257600182016000818152600460205260409020546115305760005481146115305760008181526004602052604090208290555b505b81836001600160a01b0316856001600160a01b03167fddf252ad1be2c89b69c2b068fc378daa952ba7f163c4a11628f55a4df523b3ef60405160405180910390a450505050565b6008546001600160a01b03163314610f5e5760405162461bcd60e51b815260206004820181905260248201527f4f776e61626c653a2063616c6c6572206973206e6f7420746865206f776e6572604482015260640161079e565b6040805160808101825260008082526020820181905291810182905260608101919091526105326116038361164b565b604080516080810182526001600160a01b038316815260a083901c67ffffffffffffffff166020820152600160e01b831615159181019190915260e89190911c606082015290565b6000818060011161169b5760005481101561169b57600081815260046020526040902054600160e01b8116611699575b8061116957506000190160008181526004602052604090205461167b565b505b604051636f96cda160e11b815260040160405180910390fd5b600880546001600160a01b038381166001600160a01b0319831681179093556040519116919082907f8be0079c531659141344cd1fd0a4f28419497f9722a3daafe3b4186f6b6457e090600090a35050565b604051630a85bd0160e11b81526000906001600160a01b0385169063150b7a029061173b9033908990889088906004016120f7565b602060405180830381600087803b15801561175557600080fd5b505af1925050508015611785575060408051601f3d908101601f1916820190925261178291810190612134565b60015b6117e0573d8080156117b3576040519150601f19603f3d011682016040523d82523d6000602084013e6117b8565b606091505b5080516117d8576040516368d2bf6b60e11b815260040160405180910390fd5b805181602001fd5b6001600160e01b031916630a85bd0160e11b1490505b949350505050565b604080516080810191829052607f0190826030600a8206018353600a90045b801561183b57600183039250600a81066030018353600a900461181d565b50819003601f19909101908152919050565b6118578383611907565b6001600160a01b0383163b156102d4576000548281035b6118816000868380600101945086611706565b61189e576040516368d2bf6b60e11b815260040160405180910390fd5b81811061186e5781600054146118b357600080fd5b5050505050565b600081815b84518110156118ff576118eb828683815181106118de576118de612151565b60200260200101516119fe565b9150806118f781612094565b9150506118bf565b509392505050565b600054816119285760405163b562e8dd60e01b815260040160405180910390fd5b6001600160a01b03831660008181526005602090815260408083208054680100000000000000018802019055848352600490915281206001851460e11b4260a01b178317905582840190839083907fddf252ad1be2c89b69c2b068fc378daa952ba7f163c4a11628f55a4df523b3ef8180a4600183015b8181146119d757808360007fddf252ad1be2c89b69c2b068fc378daa952ba7f163c4a11628f55a4df523b3ef600080a460010161199f565b50816119f557604051622e076360e81b815260040160405180910390fd5b60005550505050565b6000818310611a1a576000828152602084905260409020611169565b5060009182526020526040902090565b828054611a3690611f4a565b90600052602060002090601f016020900481019282611a585760008555611a9e565b82601f10611a7157805160ff1916838001178555611a9e565b82800160010185558215611a9e579182015b82811115611a9e578251825591602001919060010190611a83565b50611aaa929150611aae565b5090565b5b80821115611aaa5760008155600101611aaf565b6001600160e01b03198116811461136b57600080fd5b600060208284031215611aeb57600080fd5b813561116981611ac3565b60005b83811015611b11578181015183820152602001611af9565b838111156110d85750506000910152565b60008151808452611b3a816020860160208601611af6565b601f01601f19169290920160200192915050565b6020815260006111696020830184611b22565b600060208284031215611b7357600080fd5b5035919050565b80356001600160a01b0381168114611b9157600080fd5b919050565b60008060408385031215611ba957600080fd5b611bb283611b7a565b946020939093013593505050565b634e487b7160e01b600052604160045260246000fd5b600067ffffffffffffffff80841115611bf157611bf1611bc0565b604051601f8501601f19908116603f01168101908282118183101715611c1957611c19611bc0565b81604052809350858152868686011115611c3257600080fd5b858560208301376000602087830101525050509392505050565b600082601f830112611c5d57600080fd5b61116983833560208501611bd6565b600060208284031215611c7e57600080fd5b813567ffffffffffffffff811115611c9557600080fd5b6117f684828501611c4c565b600080600060608486031215611cb657600080fd5b611cbf84611b7a565b9250611ccd60208501611b7a565b9150604084013590509250925092565b60008083601f840112611cef57600080fd5b50813567ffffffffffffffff811115611d0757600080fd5b6020830191508360208260051b8501011115611d2257600080fd5b9250929050565b60008060008060008060008060c0898b031215611d4557600080fd5b611d4e89611b7a565b9750602089013596506040890135955060608901359450608089013567ffffffffffffffff80821115611d8057600080fd5b818b0191508b601f830112611d9457600080fd5b813581811115611da357600080fd5b8c6020828501011115611db557600080fd5b6020830196508095505060a08b0135915080821115611dd357600080fd5b50611de08b828c01611cdd565b999c989b5096995094979396929594505050565b600060208284031215611e0657600080fd5b61116982611b7a565b801515811461136b57600080fd5b60008060408385031215611e3057600080fd5b611e3983611b7a565b91506020830135611e4981611e0f565b809150509250929050565b60008060008060808587031215611e6a57600080fd5b611e7385611b7a565b9350611e8160208601611b7a565b925060408501359150606085013567ffffffffffffffff811115611ea457600080fd5b8501601f81018713611eb557600080fd5b611ec487823560208401611bd6565b91505092959194509250565b60008060408385031215611ee357600080fd5b611eec83611b7a565b9150611efa60208401611b7a565b90509250929050565b60008060408385031215611f1657600080fd5b82359150602083013567ffffffffffffffff811115611f3457600080fd5b611f4085828601611c4c565b9150509250929050565b600181811c90821680611f5e57607f821691505b60208210811415611f7f57634e487b7160e01b600052602260045260246000fd5b50919050565b600060208284031215611f9757600080fd5b815161116981611e0f565b60008251611fb4818460208701611af6565b9190910192915050565b6020808252603a908201527f596f75206e65656420746f2075736520616e206164647265737320726567697360408201527f7465726564206f6e2050726f6f66206f662048756d616e697479000000000000606082015260800190565b634e487b7160e01b600052601160045260246000fd5b6000828210156120435761204361201b565b500390565b8183823760009101908152919050565b8581528460208201528284604083013760609190911b6bffffffffffffffffffffffff1916604091909201908101919091526054019392505050565b60006000198214156120a8576120a861201b565b5060010190565b600083516120c1818460208801611af6565b8351908301906120d5818360208801611af6565b01949350505050565b8281526040602082015260006117f66040830184611b22565b6001600160a01b038581168252841660208201526040810183905260806060820181905260009061212a90830184611b22565b9695505050505050565b60006020828403121561214657600080fd5b815161116981611ac3565b634e487b7160e01b600052603260045260246000fdfea26469706673582212207f6644ed29c0f70002d4358dfa62d46dab1194d97f87d1075875cbbada11ee7464736f6c63430008090033",
  "linkReferences": {},
  "deployedLinkReferences": {}
}